:100000000C9458030C947E030C9475030C947503A4
:100010000C9475030C9475030C9475030C94750380
:100020000C9475030C9475030C9475030C943604AE
:100030000C947F040C94AD040C9475030C9475031C
:100040000C9475030C9475030C9475030C94750350
:100050000C9475030C9419130C9475030C9475038C
:100060000C9475030C947503001F000000001F0022
:10007000001F101010101F00001F181818181F0064
:10008000001F1C1C1C1C1F00001F1E1E1E1E1F000C
:10009000001F1F1F1F1F1F0003070F1F0F07030055
:1000A000181C1E1F1E1C1800000001000200030087
:1000B000040006000700080009000A000B000C00FD
:1000C0000D000E000F0010001100120013001400AC
:1000D00015001600180019001A001B001C001D0056
:1000E0001E001F0020002100220023002400250004
:1000F00026002700280029002A002B002C002D00B4
:100100002E002F0030003100320033003400350063
:1001100036003700380039003A003B003C003D0013
:100120003E003F00400041004200430044004400C4
:10013000450046004700480049004A004B004C007B
:100140004D004E004F00500051005200530054002B
:100150005500560057005800580059005A005B00DF
:100160005C005D005E005F00600061006200630093
:1001700064006500660066006700680069006A0048
:100180006B006C006D006E006F00700071007200FB
:1001900072007300740075007600770078007900B3
:1001A0007A007B007C007C007D007E007F00800068
:1001B000810082008300840085008600860087001D
:1001C000880089008A008B008C008D008E008F00D3
:1001D0008F0090009100920093009400950096008B
:1001E00097009700980099009A009B009C009D0042
:1001F0009E009F009F00A000A100A200A300A400F9
:10020000A500A600A700A700A800A900AA00AB00AF
:10021000AC00AD00AE00AF00AF00B000B100B20066
:10022000B300B400B500B600B600B700B800B9001E
:10023000BA00BB00BC00BD00BE00BE00BF00C000D5
:10024000C100C200C300C400C500C500C600C7008D
:10025000C800C900CA00CB00CC00CD00CD00CE0044
:10026000CF00D000D100D200D300D400D400D500FC
:10027000D600D700D800D900DA00DB00DC00DC00B3
:10028000DD00DE00DF00E000E100E200E300E4006A
:10029000E400E500E600E700E800E900EA00EB0022
:1002A000EB00EC00ED00EE00EF00F000F100F200DA
:1002B000F300F300F400F500F600F700F800F90091
:1002C000FA00FB00FC00FC00FD00FE00FF00000146
:1002D00001010201030104010401050106010701F6
:1002E000080109010A010B010C010D010D010E01AC
:1002F0000F01100111011201130114011501160162
:1003000017011701180119011A011B011C011D0118
:100310001E011F01200121012101220123012401CD
:10032000250126012701280129012A012B012C0181
:100330002D012D012E012F01300131013201330138
:100340003401350136013701380139013A013B01E9
:100350003B013C013D013E013F01400141014201A1
:1003600043014401450146014701480149014A0151
:100370004B014C014D014E014F014F015001510104
:1003800052015301540155015601570158015901B9
:100390005A015B015C015D015E015F016001610169
:1003A0006201630164016501660167016801690119
:1003B0006A016B016C016D016E016F0170017101C9
:1003C0007201730174017501760177017801790179
:1003D0007A017B017C017D017E017F018001810129
:1003E00082018301840185018601880189018A01D6
:1003F0008B018C018D018E018F0190019101920181
:100400009301940195019601970198019A019B012E
:100410009C019D019E019F01A001A101A201A301D8
:10042000A401A601A701A801A901AA01AB01AC0181
:10043000AD01AE01B001B101B201B301B401B5012A
:10044000B601B701B901BA01BB01BC01BD01BE01D2
:10045000C001C101C201C301C401C501C701C80176
:10046000C901CA01CB01CC01CE01CF01D001D1011C
:10047000D201D401D501D601D701D801DA01DB01BF
:10048000DC01DD01DF01E001E101E201E401E50160
:10049000E601E701E901EA01EB01EC01EE01EF0100
:1004A000F001F201F301F401F501F701F801F9019E
:1004B000FB01FC01FD01FF01000201020302040235
:1004C00005020702080209020B020C020D020F02CC
:1004D00010021202130214021602170219021A0263
:1004E0001B021D021E0220022102230224022602F8
:1004F000270228022A022B022D022E02300231028C
:10050000330234023602370239023A023C023E021A
:100510003F024102420244024502470249024A02A6
:100520004C024D024F02510252025402560257022F
:1005300059025B025C025E026002610263026502B4
:10054000660268026A026C026D026F027102730237
:100550007402760278027A027C027E027F028102B5
:1005600083028502870289028B028D028E0290022D
:1005700092029402960298029A029C029E02A002A3
:10058000A202A402A602A802AB02AD02AF02B1020F
:10059000B302B502B702B902BC02BE02C002C20277
:1005A000C402C702C902CB02CE02D002D202D502D7
:1005B000D702D902DC02DE02E102E302E502E80230
:1005C000EA02ED02F002F202F502F702FA02FC0280
:1005D000FF020203050307030A030D0310031203BE
:1005E000150318031B031E032103240327032A03F7
:1005F0002D0330033303360339033D034003430324
:1006000046034A034D035003540357035B035E0341
:100610006203650369036D037103740378037C034C
:100620008003840388038C039003940398039D0341
:10063000A103A503AA03AE03B303B803BC03C1031C
:10064000C603CB03D003D503DA03DF03E503EA03D4
:10065000EF03F503FB03000406040C041204190461
:100660001F0425042C0433043A04400448044F04B6
:1006700056045E0466046E0476047E0487049004C7
:100680009904A204AC04B604C004CA04D504E0046E
:10069000EC04F804040511051E052C053A0549056E
:1006A000590569057A058C059F05B305C805DE0562
:1006B00011241FBECFEFD8E0DEBFCDBF11E0A0E018
:1006C000B1E0E4EFF1E302C005900D92AC31B10767
:1006D000D9F711E0ACE1B1E001C01D92A232B1073F
:1006E000E1F70E9448060C94F8180C940000DF9380
:1006F000CF93CDB7DEB7CF91DF9108951F920F92C0
:100700000FB60F9211242F933F934F935F936F93E4
:100710007F938F939F93AF93BF93EF93FF93DF9359
:10072000CF93CDB7DEB7F89485E290E025E230E0D4
:10073000F90120812160FC01208381E890E021E81B
:1007400030E0F90120812360FC01208384E890E0FF
:10075000FC018081918190931D0180931C0184E8AC
:1007600090E0FC011182108280911C0190911D018A
:100770002CE030E0B9010E9469189B01C9019093F7
:100780001F0180931E0180910201909103019C0141
:1007900080911E0190911F012817390788F420913C
:1007A0001E0130911F018091020190910301A90166
:1007B000481B590BCA0190931F0180931E0106C06C
:1007C00081E090E090931F0180931E0180910001D1
:1007D000909101019C0180911E0190911F012817A9
:1007E000390788F420911E0130911F01809100018A
:1007F00090910101F901E81BF90BCF0190932101C0
:100800008093200116C020911C0130911D01809120
:100810001E0190911F01280F391F809100019091B6
:100820000101A901481B590BCA0190932101809332
:10083000200188E890E020911E0130911F01FC0109
:10084000318320837894CF91DF91FF91EF91BF9115
:10085000AF919F918F917F916F915F914F913F9158
:100860002F910F900FBE0F901F9018951F920F920F
:100870000FB60F9211242F933F938F939F93EF9373
:10088000FF93DF93CF93CDB7DEB785E290E025E20B
:1008900030E0F90120812F7DFC01208385E290E08A
:1008A00025E230E0F90120812160FC012083809164
:1008B0000001909101019C0180911C0190911D010A
:1008C0002817390730F082E090E09093210180935F
:1008D00020018AE890E02091200130912101FC0163
:1008E00031832083CF91DF91FF91EF919F918F9181
:1008F0003F912F910F900FBE0F901F9018951F9250
:100900000F920FB60F9211242F933F938F939F93C3
:10091000EF93FF93DF93CF93CDB7DEB785E290E0FF
:1009200025E230E0F90120812160FC01208385E28D
:1009300090E025E230E0F90120812062FC01208373
:10094000CF91DF91FF91EF919F918F913F912F91E7
:100950000F900FBE0F901F9018951F920F920FB619
:100960000F9211242F933F938F939F93EF93FF93B5
:10097000DF93CF93CDB7DEB785E290E025E230E09C
:10098000F90120812160FC01208385E290E025E2CD
:1009900030E0F90120812F7DFC01208381E890E087
:1009A000FC011082CF91DF91FF91EF919F918F9188
:1009B0003F912F910F900FBE0F901F901895DF93CE
:1009C000CF9300D0CDB7DEB79A8389830CC08981DD
:1009D0009A81FC01208189819A8101969A83898379
:1009E000822F0E94F10689819A81FC0180818823EF
:1009F00071F70F900F90CF91DF9108950F931F9390
:100A0000DF93CF93CDB7DEB7E1970FB6F894DEBF93
:100A10000FBECDBFCE01829624E031E040E1F90166
:100A200000802F5F3F4FFC0100820196415044231C
:100A3000B1F70E94E2122AE030E0B9010E94691881
:100A40009B013A83298389819A819E01215E3F4FD0
:100A5000B9014AE050E00E94C7188F8D88A788A18D
:100A600089A789A18AA70E94AD1080E090E0A0E844
:100A7000BFE38B839C83AD83BE836B817C818D813F
:100A80009E8120E030E04AEF54E40E94FD14DC0136
:100A9000CB018F839887A987BA8711E06F8178850A
:100AA00089859A8520E030E040E85FE30E94571690
:100AB00088230CF010E0112329F081E090E09C875E
:100AC0008B8746C011E06F81788589859A8520E003
:100AD0003FEF4FE757E40E94F71518160CF010E0AF
:100AE000112361F16B817C818D819E8120E030E05A
:100AF00040E251E40E94FD14DC01CB01BC01CD01B8
:100B00000E942913DC01CB019C878B8712C088ECE3
:100B100090E09E878D878D859E858C01C801019709
:100B2000F1F78C011E870D878B859C8501979C872B
:100B30008B878B859C85009751F717C06F817885CF
:100B400089859A850E942913DC01CB019C878B87BC
:100B50008B859C85988B8F878F8598898C01F80170
:100B60003197F1F78F01188B0F8780E060E00E94CA
:100B7000E81080E090E0A0E8BFE3898B9A8BAB8B14
:100B8000BC8B69897A898B899C8920E030E04AEFA7
:100B900054E40E94FD14DC01CB018D8B9E8BAF8B46
:100BA000B88F11E06D897E898F89988D20E030E0C3
:100BB00040E85FE30E94571688230CF010E01123F1
:100BC00029F081E090E09A8F898F46C011E06D890D
:100BD0007E898F89988D20E03FEF4FE757E40E9490
:100BE000F71518160CF010E0112361F169897A8964
:100BF0008B899C8920E030E040E251E40E94FD14A2
:100C0000DC01CB01BC01CD010E942913DC01CB0129
:100C10009A8F898F12C088EC90E09C8F8B8F8B8D80
:100C20009C8D8C01C8010197F1F78C011C8F0B8FF3
:100C3000898D9A8D01979A8F898F898D9A8D0097CA
:100C400051F717C06D897E898F89988D0E9429136D
:100C5000DC01CB019A8F898F898D9A8D9E8F8D8F24
:100C60008D8D9E8D8C01F8013197F1F78F011E8FCC
:100C70000D8FCE0182960E94DF04E1960FB6F894A4
:100C8000DEBF0FBECDBFCF91DF911F910F910895B1
:100C90000F931F93DF93CF93CDB7DEB72E970FB689
:100CA000F894DEBF0FBECDBF0E94770384E290E0D0
:100CB00024E230E0F90120812160FC0120830E94C0
:100CC000A6120E94B30B0E94AD1085E290E025E2CF
:100CD00030E0F90120812E7FFC0120830E94FE0478
:100CE00080E090E0AAE7B4E489839A83AB83BC8375
:100CF00069817A818B819C8120E030E04AEF54E465
:100D00000E94FD14DC01CB018D839E83AF83B887E5
:100D100011E06D817E818F81988520E030E040E890
:100D20005FE30E94571688230CF010E0112329F08E
:100D300081E090E09A87898746C011E06D817E81CD
:100D40008F81988520E03FEF4FE757E40E94F71529
:100D500018160CF010E0112361F169817A818B8102
:100D60009C8120E030E040E251E40E94FD14DC016F
:100D7000CB01BC01CD010E942913DC01CB019A8774
:100D8000898712C088EC90E09C878B878B859C8537
:100D90008C01C8010197F1F78C011C870B878985AD
:100DA0009A8501979A87898789859A85009751F74F
:100DB0008CCF6D817E818F8198850E942913DC0103
:100DC000CB019A87898789859A859E878D878D85AE
:100DD0009E858C01F8013197F1F78F011E870D87F1
:100DE00074CF0F931F93DF93CF93CDB7DEB7E997FF
:100DF0000FB6F894DEBF0FBECDBF89AF8BE290E097
:100E000029AD207FFC0120838BE290E02BE230E0D3
:100E1000F90120812160FC0120838BE290E02BE22C
:100E200030E0F90120812860FC01208380E090E01F
:100E3000A0E8BFE389839A83AB83BC8369817A810D
:100E40008B819C8120E030E04AE753E40E94FD144E
:100E5000DC01CB018D839E83AF83B88711E06D8168
:100E60007E818F81988520E030E040E85FE30E943A
:100E7000571688230CF010E0112329F081E090E050
:100E80009A87898746C011E06D817E818F81988520
:100E900020E03FEF4FE757E40E94F71518160CF0DB
:100EA00010E0112361F169817A818B819C8120E0BE
:100EB00030E040E251E40E94FD14DC01CB01BC01B2
:100EC000CD010E942913DC01CB019A87898712C0CA
:100ED00089E190E09C878B878B859C858C01C8017C
:100EE0000197F1F78C011C870B8789859A850197FB
:100EF0009A87898789859A85009751F717C06D81F0
:100F00007E818F8198850E942913DC01CB019A870D
:100F1000898789859A859E878D878D859E858C0199
:100F2000F8013197F1F78F011E870D878BE290E072
:100F30002BE230E0F9012081277FFC0120838BE246
:100F400090E02BE230E0F90120812E7FFC0120832C
:100F500080E090E0A0E8BFE38F87988BA98BBA8BE5
:100F60006F85788989899A8920E030E04AE753E4DF
:100F70000E94FD14DC01CB018B8B9C8BAD8BBE8B57
:100F800011E06B897C898D899E8920E030E040E802
:100F90005FE30E94571688230CF010E0112329F01C
:100FA00081E090E0988F8F8B46C011E06B897C893F
:100FB0008D899E8920E03FEF4FE757E40E94F715A7
:100FC00018160CF010E0112361F16F85788989897A
:100FD0009A8920E030E040E251E40E94FD14DC01F7
:100FE000CB01BC01CD010E942913DC01CB01988FFC
:100FF0008F8B12C089E190E09A8F898F898D9A8DAD
:101000008C01C8010197F1F78C011A8F098F8F8924
:10101000988D0197988F8F8B8F89988D009751F7B6
:1010200017C06B897C898D899E890E942913DC01F8
:10103000CB01988F8F8B8F89988D9C8F8B8F8B8D09
:101040009C8D8C01F8013197F1F78F011C8F0B8F6C
:101050008BE290E029AD222F30E022953295307F4F
:101060003227207F3227FC0120838BE290E02BE2A5
:1010700030E0F90120812160FC0120838BE290E0C7
:101080002BE230E0F90120812860FC01208380E020
:1010900090E0A0E8BFE38D8F9E8FAF8FB8A36D8DDA
:1010A0007E8D8F8D98A120E030E04AE753E40E94C6
:1010B000FD14DC01CB0189A39AA3ABA3BCA311E06F
:1010C00069A17AA18BA19CA120E030E040E85FE318
:1010D0000E94571688230CF010E0112329F081E0BC
:1010E00090E09EA38DA346C011E069A17AA18BA1D7
:1010F0009CA120E03FEF4FE757E40E94F715181638
:101100000CF010E0112361F16D8D7E8D8F8D98A113
:1011100020E030E040E251E40E94FD14DC01CB010C
:10112000BC01CD010E942913DC01CB019EA38DA33C
:1011300012C089E190E098A78FA38FA198A58C0198
:10114000C8010197F1F78C0118A70FA38DA19EA1EB
:1011500001979EA38DA38DA19EA1009751F717C063
:1011600069A17AA18BA19CA10E942913DC01CB016A
:101170009EA38DA38DA19EA19AA789A789A59AA5B3
:101180008C01F8013197F1F78F011AA709A78BE2BB
:1011900090E02BE230E0F9012081277FFC012083E1
:1011A0008BE290E02BE230E0F90120812E7FFC0100
:1011B000208380E090E0A0E8BFE38BA79CA7ADA7C9
:1011C000BEA76BA57CA58DA59EA520E030E04AE7D3
:1011D00053E40E94FD14DC01CB018FA798ABA9ABAF
:1011E000BAAB11E06FA578A989A99AA920E030E0EF
:1011F00040E85FE30E94571688230CF010E01123AB
:1012000029F081E090E09CAB8BAB46C011E06FA56C
:1012100078A989A99AA920E03FEF4FE757E40E94F7
:10122000F71518160CF010E0112361F16BA57CA5E1
:101230008DA59EA520E030E040E251E40E94FD141F
:10124000DC01CB01BC01CD010E942913DC01CB01E3
:101250009CAB8BAB12C089E190E09EAB8DAB8DA9AE
:101260009EA98C01C8010197F1F78C011EAB0DAB53
:101270008BA99CA901979CAB8BAB8BA99CA90097D0
:1012800051F717C06FA578A989A99AA90E942913B7
:10129000DC01CB019CAB8BAB8BA99CA998AF8FAB2E
:1012A0008FA998AD8C01F8013197F1F78F0118AF34
:1012B0000FABE9960FB6F894DEBF0FBECDBFCF914E
:1012C000DF911F910F9108950F931F93DF93CF9399
:1012D000CDB7DEB7E9970FB6F894DEBF0FBECDBF2E
:1012E00089AF8BE290E029AD207FFC0120838BE267
:1012F00090E02BE230E0F90120812860FC0120839E
:1013000080E090E0A0E8BFE389839A83AB83BC834D
:1013100069817A818B819C8120E030E04AE753E447
:101320000E94FD14DC01CB018D839E83AF83B887BF
:1013300011E06D817E818F81988520E030E040E86A
:101340005FE30E94571688230CF010E0112329F068
:1013500081E090E09A87898746C011E06D817E81A7
:101360008F81988520E03FEF4FE757E40E94F71503
:1013700018160CF010E0112361F169817A818B81DC
:101380009C8120E030E040E251E40E94FD14DC0149
:10139000CB01BC01CD010E942913DC01CB019A874E
:1013A000898712C089E190E09C878B878B859C851B
:1013B0008C01C8010197F1F78C011C870B87898587
:1013C0009A8501979A87898789859A85009751F729
:1013D00017C06D817E818F8198850E942913DC0161
:1013E000CB019A87898789859A859E878D878D8588
:1013F0009E858C01F8013197F1F78F011E870D87CB
:101400008BE290E02BE230E0F9012081277FFC01A4
:10141000208380E090E0A0E8BFE38F87988BA98BC2
:10142000BA8B6F85788989899A8920E030E04AE70C
:1014300053E40E94FD14DC01CB018B8B9C8BAD8BA4
:10144000BE8B11E06B897C898D899E8920E030E01C
:1014500040E85FE30E94571688230CF010E0112348
:1014600029F081E090E0988F8F8B46C011E06B8966
:101470007C898D899E8920E03FEF4FE757E40E94E9
:10148000F71518160CF010E0112361F16F857889BB
:1014900089899A8920E030E040E251E40E94FD14FD
:1014A000DC01CB01BC01CD010E942913DC01CB0181
:1014B000988F8F8B12C089E190E09A8F898F898DE8
:1014C0009A8D8C01C8010197F1F78C011A8F098F51
:1014D0008F89988D0197988F8F8B8F89988D009722
:1014E00051F717C06B897C898D899E890E942913C9
:1014F000DC01CB01988F8F8B8F89988D9C8F8B8F80
:101500008B8D9C8D8C01F8013197F1F78F011C8F29
:101510000B8F8BE290E029AD222F30E0229532959F
:10152000307F3227207F3227FC0120838BE290E03E
:101530002BE230E0F90120812860FC01208380E06B
:1015400090E0A0E8BFE38D8F9E8FAF8FB8A36D8D25
:101550007E8D8F8D98A120E030E04AE753E40E9411
:10156000FD14DC01CB0189A39AA3ABA3BCA311E0BA
:1015700069A17AA18BA19CA120E030E040E85FE363
:101580000E94571688230CF010E0112329F081E007
:1015900090E09EA38DA346C011E069A17AA18BA122
:1015A0009CA120E03FEF4FE757E40E94F715181683
:1015B0000CF010E0112361F16D8D7E8D8F8D98A15F
:1015C00020E030E040E251E40E94FD14DC01CB0158
:1015D000BC01CD010E942913DC01CB019EA38DA388
:1015E00012C089E190E098A78FA38FA198A58C01E4
:1015F000C8010197F1F78C0118A70FA38DA19EA137
:1016000001979EA38DA38DA19EA1009751F717C0AE
:1016100069A17AA18BA19CA10E942913DC01CB01B5
:101620009EA38DA38DA19EA19AA789A789A59AA5FE
:101630008C01F8013197F1F78F011AA709A78BE206
:1016400090E02BE230E0F9012081277FFC0120832C
:1016500080E090E0A0E8BFE38BA79CA7ADA7BEA762
:101660006BA57CA58DA59EA520E030E04AE753E45C
:101670000E94FD14DC01CB018FA798ABA9ABBAABDC
:1016800011E06FA578A989A99AA920E030E040E887
:101690005FE30E94571688230CF010E0112329F015
:1016A00081E090E09CAB8BAB46C011E06FA578A9C0
:1016B00089A99AA920E03FEF4FE757E40E94F71568
:1016C00018160CF010E0112361F16BA57CA58DA517
:1016D0009EA520E030E040E251E40E94FD14DC01D0
:1016E000CB01BC01CD010E942913DC01CB019CABD5
:1016F0008BAB12C089E190E09EAB8DAB8DA99EA90A
:101700008C01C8010197F1F78C011EAB0DAB8BA9C1
:101710009CA901979CAB8BAB8BA99CA9009751F717
:1017200017C06FA578A989A99AA90E942913DC017D
:10173000CB019CAB8BAB8BA99CA998AF8FAB8FA92E
:1017400098AD8C01F8013197F1F78F0118AF0FAB0D
:10175000E9960FB6F894DEBF0FBECDBFCF91DF91F3
:101760001F910F9108950F931F93DF93CF93CDB7E0
:10177000DEB7C456D0400FB6F894DEBF0FBECDBF63
:1017800080E090E0A0E7B1E48B839C83AD83BE83CF
:101790006B817C818D819E8120E030E04AE753E4BB
:1017A0000E94FD14DC01CB018F839887A987BA873B
:1017B00011E06F81788589859A8520E030E040E8E6
:1017C0005FE30E94571688230CF010E0112329F0E4
:1017D00081E090E09C878B8746C011E06F8178851F
:1017E00089859A8520E03FEF4FE757E40E94F7157F
:1017F00018160CF010E0112361F16B817C818D8152
:101800009E8120E030E040E251E40E94FD14DC01C2
:10181000CB01BC01CD010E942913DC01CB019C87C7
:101820008B8712C089E190E09E878D878D859E858C
:101830008C01C8010197F1F78C011E870D878B85FC
:101840009C8501979C878B878B859C85009751F79A
:1018500017C06F81788589859A850E942913DC01DC
:10186000CB019C878B878B859C85988B8F878F85F9
:1018700098898C01F8013197F1F78F01188B0F8748
:101880008BE290E0FC0110828BE290E0FC01108280
:101890008AE290E02AE230E0F9012081206FFC0129
:1018A00020838AE290E02AE230E0F90120812B6077
:1018B000FC0120838BE290E020E3FC0120838BE29B
:1018C00090E02BE230E0F90120812860FC012083C8
:1018D00080E090E0A0E8BFE3898B9A8BAB8BBC8B58
:1018E00069897A898B899C8920E030E04AE753E452
:1018F0000E94FD14DC01CB018D8B9E8BAF8BB88FCA
:1019000011E06D897E898F89988D20E030E040E874
:101910005FE30E94571688230CF010E0112329F092
:1019200081E090E09A8F898F46C011E06D897E89B1
:101930008F89988D20E03FEF4FE757E40E94F7151D
:1019400018160CF010E0112361F169897A898B89EE
:101950009C8920E030E040E251E40E94FD14DC016B
:10196000CB01BC01CD010E942913DC01CB019A8F70
:10197000898F12C089E190E09C8F8B8F8B8D9C8D1D
:101980008C01C8010197F1F78C011C8F0B8F898D99
:101990009A8D01979A8F898F898D9A8D009751F72B
:1019A00017C06D897E898F89988D0E942913DC016B
:1019B000CB019A8F898F898D9A8D9E8F8D8F8D8D7A
:1019C0009E8D8C01F8013197F1F78F011E8F0D8FDD
:1019D0008BE290E02BE230E0F9012081277FFC01CF
:1019E000208380E090E0A0E8BFE38F8F98A3A9A3B5
:1019F000BAA36F8D78A189A19AA120E030E04AE7CF
:101A000053E40E94FD14DC01CB018BA39CA3ADA386
:101A1000BEA311E06BA17CA18DA19EA120E030E0CE
:101A200040E85FE30E94571688230CF010E0112372
:101A300029F081E090E098A78FA346C011E06BA148
:101A40007CA18DA19EA120E03FEF4FE757E40E94CB
:101A5000F71518160CF010E0112361F16F8D78A1C5
:101A600089A19AA120E030E040E251E40E94FD14F7
:101A7000DC01CB01BC01CD010E942913DC01CB01AB
:101A800098A78FA312C089E190E09AA789A789A59A
:101A90009AA58C01C8010197F1F78C011AA709A733
:101AA0008FA198A5019798A78FA38FA198A50097BC
:101AB00051F717C06BA17CA18DA19EA10E94291393
:101AC000DC01CB0198A78FA38FA198A59CA78BA71A
:101AD0008BA59CA58C01F8013197F1F78F011CA70C
:101AE0000BA78BE290E020E3FC0120838BE290E0E7
:101AF0002BE230E0F90120812860FC01208380E0A6
:101B000090E0A0E8BFE38DA79EA7AFA7B8AB6DA5F7
:101B10007EA58FA598A920E030E04AE753E40E9413
:101B2000FD14DC01CB0189AB9AABABABBCAB11E0D4
:101B300069A97AA98BA99CA920E030E040E85FE37D
:101B40000E94571688230CF010E0112329F081E041
:101B500090E09EAB8DAB46C011E069A97AA98BA934
:101B60009CA920E03FEF4FE757E40E94F7151816B5
:101B70000CF010E0112361F16DA57EA58FA598A949
:101B800020E030E040E251E40E94FD14DC01CB0192
:101B9000BC01CD010E942913DC01CB019EAB8DABB2
:101BA00012C089E190E098AF8FAB8FA998AD8C01FE
:101BB000C8010197F1F78C0118AF0FAB8DA99EA951
:101BC00001979EAB8DAB8DA99EA9009751F717C0C9
:101BD00069A97AA98BA99CA90E942913DC01CB01D0
:101BE0009EAB8DAB8DA99EA99AAF89AF89AD9AADF9
:101BF0008C01F8013197F1F78F011AAF09AF8BE231
:101C000090E02BE230E0F9012081277FFC01208366
:101C100080E090E0A0E8BFE38BAF9CAFADAFBEAF7C
:101C20008E01015C1F4F6BAD7CAD8DAD9EAD20E094
:101C300030E04AE753E40E94FD14DC01CB01F801D7
:101C400080839183A283B383CE01CF9611E0FC0100
:101C5000608171818281938120E030E040E85FE320
:101C60000E94571688230CF010E0112349F0CE0192
:101C70008D5B9F4F21E030E0FC01318320836EC0FB
:101C8000CE01CF9611E0FC01608171818281938148
:101C900020E03FEF4FE757E40E94F71518160CF0CD
:101CA00010E0112309F449C06BAD7CAD8DAD9EAD44
:101CB00020E030E040E251E40E94FD14DC01CB0161
:101CC0008E010D5B1F4FBC01CD010E942913DC0169
:101CD000CB01F8019183808327C0CE018B5B9F4F9E
:101CE00029E130E0FC0131832083CE018B5B9F4FE3
:101CF000FC01808191818C01C8010197F1F78C0171
:101D0000CE018B5B9F4FFC0111830083CE018D5B65
:101D10009F4F9E012D5B3F4FF90120813181215062
:101D20003040FC0131832083CE018D5B9F4FFC014D
:101D300080819181009789F62EC08E010D5B1F4F27
:101D4000CE01CF96FC0160817181828193810E94D6
:101D50002913DC01CB01F80191838083CE01895BDB
:101D60009F4F9E012D5B3F4FF90120813181FC0186
:101D700031832083CE01895B9F4FFC01808191815B
:101D80008C01C8010197F1F78C01CE01895B9F4F4F
:101D9000FC01118300838BE290E020E2FC012083B0
:101DA0008BE290E02BE230E0F90120812860FC0119
:101DB00020839E01275B3F4F80E090E0A0E8BFE3D7
:101DC000F90180839183A283B3838E01035B1F4F4C
:101DD000CE01875B9F4FFC0160817181828193817D
:101DE00020E030E04AE753E40E94FD14DC01CB011F
:101DF000F80180839183A283B383CE01835B9F4FDD
:101E000011E0FC01608171818281938120E030E0EA
:101E100040E85FE30E94571688230CF010E011237E
:101E200049F0CE018F5A9F4F21E030E0FC01318311
:101E3000208374C0CE01835B9F4F11E0FC01608161
:101E400071818281938120E03FEF4FE757E40E9448
:101E5000F71518160CF010E0112309F44DC0CE014F
:101E6000875B9F4FFC01608171818281938120E0BB
:101E700030E040E251E40E94FD14DC01CB018E0110
:101E80000F5A1F4FBC01CD010E942913DC01CB0169
:101E9000F8019183808327C0CE018D5A9F4F29E19D
:101EA00030E0FC0131832083CE018D5A9F4FFC012D
:101EB000808191818C01C8010197F1F78C01CE01DD
:101EC0008D5A9F4FFC0111830083CE018F5A9F4F83
:101ED0009E012F5A3F4FF90120813181215030401E
:101EE000FC0131832083CE018F5A9F4FFC018081FA
:101EF0009181009789F62FC08E010F5A1F4FCE0196
:101F0000835B9F4FFC0160817181828193810E947C
:101F10002913DC01CB01F80191838083CE018B5A18
:101F20009F4F9E012F5A3F4FF90120813181FC01C3
:101F300031832083CE018B5A9F4FFC018081918198
:101F40008C01C8010197F1F78C01CE018B5A9F4F8C
:101F5000FC01118300838BE290E02BE230E0F90179
:101F60002081277FFC0120839E01295A3F4F80E07A
:101F700090E0A0E8BFE3F90180839183A283B3835B
:101F80008E01055A1F4FCE01895A9F4FFC01608177
:101F900071818281938120E030E04AE753E40E941E
:101FA000FD14DC01CB01F80180839183A283B3830C
:101FB000CE01855A9F4F11E0FC01608171818281C1
:101FC000938120E030E040E85FE30E9457168823C9
:101FD0000CF010E0112349F0CE01815A9F4F21E00F
:101FE00030E0FC013183208374C0CE01855A9F4FBD
:101FF00011E0FC01608171818281938120E03FEFDB
:102000004FE757E40E94F71518160CF010E0112363
:1020100009F44DC0CE01895A9F4FFC016081718146
:102020008281938120E030E040E251E40E94FD147F
:10203000DC01CB018E01015A1F4FBC01CD010E9472
:102040002913DC01CB01F8019183808327C0CE01E5
:102050008F599F4F29E130E0FC0131832083CE016D
:102060008F599F4FFC01808191818C01C80101979C
:10207000F1F78C01CE018F599F4FFC011183008332
:10208000CE01815A9F4F9E01215A3F4FF901208175
:10209000318121503040FC0131832083CE01815AAF
:1020A0009F4FFC0180819181009789F62FC08E019E
:1020B000015A1F4FCE01855A9F4FFC0160817181EB
:1020C000828193810E942913DC01CB01F801918365
:1020D0008083CE018D599F4F9E01215A3F4FF901B8
:1020E00020813181FC0131832083CE018D599F4FA6
:1020F000FC01808191818C01C8010197F1F78C016D
:10210000CE018D599F4FFC011183008388E20E940C
:1021100064098CE00E94640919821A820FC08981C7
:10212000882F90E088599F4F2A813A813F5F3A83F8
:10213000622F0E9460118981885F89838981803440
:1021400070F3CC59DF4F0FB6F894DEBF0FBECDBF92
:10215000CF91DF911F910F910895DF93CF93CDB76A
:10216000DEB781E00E946409CF91DF910895DF938B
:10217000CF93CDB7DEB782E00E946409CF91DF91A3
:1021800008951F93DF93CF9300D00F92CDB7DEB7A2
:102190009A8389836B8389819A81009789F010E003
:1021A0000BC0812F90E029813A81820F931FFC019F
:1021B00080810E94F1061F5F8B81181790F301C088
:1021C00000000F900F900F90CF91DF911F91089515
:1021D0001F93DF93CF9300D0CDB7DEB789836A8397
:1021E0008A81882F90E08130910579F082309105C5
:1021F0001CF4009741F015C08230910551F08330F6
:10220000910559F00EC019810DC08981182F105CFD
:1022100009C08981182F1C5E05C08981182F1C5A9E
:1022200001C01981812F80680E9464090F900F906E
:10223000CF91DF911F9108951F93DF93CF93CDB777
:10224000DEB72B970FB6F894DEBF0FBECDBF9987D0
:1022500088876A874B878A856B850E94E810198278
:1022600014C08981882F90E028853985820F931FBB
:102270009E838D838D819E81FC0114911F838F81AC
:102280000E94F10689818F5F89838981882F90E080
:1022900028853985820F931F9B838A838A819B813E
:1022A000FC0114911C838C818823D9F62B960FB6E0
:1022B000F894DEBF0FBECDBFCF91DF911F9108957F
:1022C0001F93DF93CF93CDB7DEB72A970FB6F8945D
:1022D000DEBF0FBECDBF998788876A878A85882F22
:1022E00090E0880F991F880F991F880F991F8064AD
:1022F00089831B821A821DC0288539858A819B812A
:10230000820F931F9D838C838C819D81FC0114918E
:102310001E838E818F83898199819F5F99830E941B
:1023200064098F810E94F1068A819B8101969B83BB
:102330008A838A819B8188309105F0F22A960FB6B4
:10234000F894DEBF0FBECDBFCF91DF911F910895EE
:10235000DF93CF9300D0CDB7DEB78A83198206C052
:102360008EE10E94640989818F5F898399818A81C6
:102370009817B0F30F900F90CF91DF910895DF93EE
:10238000CF9300D0CDB7DEB78A83198206C088E12B
:102390000E94640989818F5F898399818A81981756
:1023A000B0F30F900F90CF91DF910895DF93CF930B
:1023B000CDB7DEB78EE00E946409CF91DF9108951A
:1023C000DF93CF93CDB7DEB78FE00E946409CF9142
:1023D000DF910895DF93CF93CDB7DEB78CE00E94F5
:1023E0006409CF91DF910895DF93CF93CDB7DEB726
:1023F00088E00E946409CF91DF910895DF93CF9325
:10240000CDB7DEB78CE00E946409CF91DF910895CB
:10241000DF93CF9300D0CDB7DEB78A83198206C091
:1024200080E10E94640989818F5F898399818A8113
:102430009817B0F30F900F90CF91DF910895DF932D
:10244000CF9300D0CDB7DEB78A83198206C084E16E
:102450000E94640989818F5F898399818A81981795
:10246000B0F30F900F90CF91DF910895DF93CF934A
:10247000CDB7DEB727970FB6F894DEBF0FBECDBF3E
:102480008D836E834F838D81482F50E08F81282F5D
:1024900030E0C901880F991F820F931F880F991F81
:1024A0009C01429FC001439F900D529F900D1124AB
:1024B0002E81222F30E0B9010E947D189B01C901B5
:1024C0009C838B83198235C08981282F30E0C90114
:1024D000880F991F820F931F880F991F9C012B5FF4
:1024E0003F4F8B819C8182179307D8F48981282FD5
:1024F00030E0C901880F991F820F931F880F991F21
:102500009C018B819C818217930710F41A820BC067
:102510008B819C8126E030E0B9010E9469188A8392
:1025200002C085E08A838A810E94F10689818F5FDB
:10253000898399818F81981738F227960FB6F8947E
:10254000DEBF0FBECDBFCF91DF910895DF93CF9354
:10255000CDB7DEB7F8948CE790E020E4FC0120834F
:102560008AE790E026E8FC0120837894CF91DF9100
:102570000895DF93CF93CDB7DEB78AE790E02AE7DF
:1025800030E0F90120812064FC01208300008AE70B
:1025900090E0FC018081882F90E08071907000971E
:1025A000B1F38AE790E02AE730E0F9012081206169
:1025B000FC01208388E790E0FC0180819181CF912C
:1025C000DF910895EF92FF920F931F93DF93CF93C4
:1025D00000D000D000D0CDB7DEB70E94B9128E5E19
:1025E00090409A83898389819A81880F991F8855A1
:1025F0009F4F9C838B838B819C818C01F801E5909C
:10260000F4908F01FE82ED821C830B838D819E816D
:102610009A83898389819A8126960FB6F894DEBFC2
:102620000FBECDBFCF91DF911F910F91FF90EF9023
:1026300008951F920F920FB60F921124DF93CF933C
:10264000CDB7DEB7CF91DF910F900FBE0F901F90E7
:102650001895EF92FF920F931F937B018C0120E05E
:1026600030E040E05FE40E94271687FD11C0C801FA
:10267000B70120E030E040E05FE40E94CC140E940B
:1026800087169B01AC01205030404040504806C0A6
:10269000C801B7010E9487169B01AC01B901CA01AC
:1026A0001F910F91FF90EF900895A0E0B0E0EBE54F
:1026B000F3E10C949418FC01EA018081823008F463
:1026C00038C1DB019C91923008F430C1843059F458
:1026D000943009F02EC1918111968C911197981721
:1026E00009F021C126C1943009F420C19230B1F41F
:1026F000823009F01EC1CA01AF0128E0DA010D9055
:10270000AD01DC010D92CD012150C1F7DB01119625
:102710008C9111979181892389830AC1823009F4B0
:1027200005C1C280D380DB0112966D907C90139717
:1027300024813581468157811496ED90FD900D914D
:102740001C911797C601861997095C0197FF04C071
:10275000AA24BB24A81AB90AB0E2AB16B1040CF043
:1027600061C0181619066CF5370148010A2C04C01F
:1027700096948794779467940A94D2F781E090E0D6
:10278000A0E0B0E00A2C04C0880F991FAA1FBB1F4D
:102790000A94D2F70197A109B1098E219F21A023A4
:1027A000B123EE24FF248701E3940097A105B1052E
:1027B00019F4EE24FF248701E628F72808291929AF
:1027C0003CC00097D1F1CA0CDB1C39014A010A2C2C
:1027D00004C096948794779467940A94D2F781E022
:1027E00090E0A0E0B0E00A2C04C0880F991FAA1F57
:1027F000BB1F0A94D2F70197A109B1098223932341
:10280000A423B52321E030E040E050E00097A1058B
:10281000B10519F420E030E0A9012629372948291B
:1028200059290BC06C147D0424F4EE24FF24870185
:1028300004C0630120E030E0A9018181FB019181A6
:10284000891709F445C0882349F0D801C701821BC4
:10285000930BA40BB50B9C01AD0104C02E193F09CD
:10286000400B510B57FD04C01982DB82CA820BC09A
:1028700081E08983DB82CA8250954095309521950D
:102880003F4F4F4F5F4F2C833D834E835F830DC07F
:10289000880F991FAA1FBB1F8C839D83AE83BF83A4
:1028A0008A819B8101979B838A838C819D81AE81E4
:1028B000BF819C01AD0121503040404050402F3F2E
:1028C000EFEF3E07EFEF4E07EFE35E0708F30BC0B5
:1028D0008983DB82CA822E0D3F1D401F511F2C832E
:1028E0003D834E835F8383E088832C813D814E81CD
:1028F0005F8157FF1DC0DA01C90181709070A0701F
:10290000B0705695479537952795822B932BA42B1E
:10291000B52B8C839D83AE83BF838A819B81019677
:102920009B838A8305C0E4E1F1E003C0FB0101C0A1
:10293000FE01CF01CDB7DEB7EEE00C94B018A0E2F7
:10294000B0E0E5EAF4E10C949C1869837A838B8308
:102950009C832D833E834F83588789E0E82EF12C9A
:10296000EC0EFD1ECE010196B7010E94A7178E0145
:102970000F5E1F4FCE010596B8010E94A717C70131
:10298000B801AE01475E5F4F0E9455130E94D916F1
:10299000A096E6E00C94B818A0E2B0E0E2EDF4E115
:1029A0000C949C1869837A838B839C832D833E834C
:1029B0004F8358878E01075F1F4FCE010196B801E4
:1029C0000E94A71791E1E92EF12CEC0EFD1ECE011D
:1029D0000596B7010E94A7178A8991E089278A8BFB
:1029E000C801B701AE01475E5F4F0E9455130E94B8
:1029F000D916A096E6E00C94B818A0E2B0E0E3E0A7
:102A0000F5E10C94901869837A838B839C832D83E2
:102A10003E834F835887CE010196BE01675F7F4F8B
:102A20000E94A717CE010596BE016F5E7F4F0E94E0
:102A3000A7179985923078F089898230C0F0943058
:102A400019F4823041F4CBC0843019F4923079F417
:102A5000C6C0923051F481E02A859A89291709F479
:102A600080E08A87CE010996BCC0823051F481E0B3
:102A70002A859A89291709F480E08A8BCE0141962C
:102A8000B0C06D847E848F849888ED88FE880F891D
:102A9000188DE0E2F0E080E090E0DC01AA24BB24A5
:102AA000650120E030E0A901B3016170707061152B
:102AB0007105D1F02E0D3F1D401F511F150126013C
:102AC000280E391E4A1E5B1E81E090E0A0E0B0E0B7
:102AD0002E153F054007510718F080E090E0DC011B
:102AE000820D931DA41DB51DAA0CBB1CCC1CDD1CA6
:102AF00017FF09C061E0262E312C412C512CA22851
:102B0000B328C428D528319749F0EE0CFF1C001FCC
:102B1000111F9694879477946794C6CF6B897C89AC
:102B2000EB85FC856E0F7F1F6E5F7F4F7C8F6B8FF9
:102B300061E0EA857A89E71709F460E06A8F6B8DB6
:102B40007C8D10C0FC01E170F070309729F0569533
:102B50004795379527955068B695A795979587958A
:102B60006F5F7F4FB7FDEECF0CC0880F991FAA1F74
:102B7000BB1F57FD8160220F331F441F551F61503B
:102B800070408030E0E09E07E0E0AE07E0E4BE0782
:102B900060F36B8F7C8F6FE7E62EF12C012D112DEA
:102BA000E822F9220A231B2360E4E616F10401055A
:102BB000110561F487FD0AC0211531054105510554
:102BC00029F0805C9F4FAF4FBF4F80788D8F9E8FD5
:102BD000AF8FB8A383E0898FCE01499602C084E10C
:102BE00091E00E94D916A096E2E10C94AC18A8E1FD
:102BF000B0E0EDEFF5E10C949C1869837A838B8348
:102C00009C832D833E834F8358878E01075F1F4F20
:102C1000CE010196B8010E94A71781E1E82EF12CA0
:102C2000EC0EFD1ECE010596B7010E94A7178985FF
:102C3000823040F08989823028F0C801B7010E94B3
:102C4000101801C08FEF6896E6E00C94B818A8E160
:102C5000B0E0EDE2F6E10C949C1869837A838B83F3
:102C60009C832D833E834F8358878E01075F1F4FC0
:102C7000CE010196B8010E94A71781E1E82EF12C40
:102C8000EC0EFD1ECE010596B7010E94A71789859F
:102C9000823040F08989823028F0C801B7010E9453
:102CA000101801C08FEF6896E6E00C94B818A8E100
:102CB000B0E0EDE5F6E10C949C1869837A838B8390
:102CC0009C832D833E834F8358878E01075F1F4F60
:102CD000CE010196B8010E94A71781E1E82EF12CE0
:102CE000EC0EFD1ECE010596B7010E94A71789853F
:102CF000823040F08989823028F0C801B7010E94F3
:102D0000101801C081E06896E6E00C94B818ACE0B9
:102D1000B0E0EDE8F6E10C94A01869837A838B8328
:102D20009C83CE010196BE016B5F7F4F0E94A71767
:102D30008D81823081F1823070F1843021F48E8176
:102D4000882369F10AC02F81388537FD24C06E8140
:102D50002F3131053CF0662311F120E030E040E0F6
:102D600050E821C08EE190E0821B930B29853A85C3
:102D70004B855C8504C056954795379527958A9570
:102D8000D2F7662381F050954095309521953F4FBD
:102D90004F4F5F4F08C020E030E0A90104C02FEF83
:102DA0003FEF4FEF5FE7B901CA012C96E2E00C94C8
:102DB000BC18EF92FF920F931F93CF93DF93FC0108
:102DC000248135814681578161818081823020F460
:102DD0004061EFEFF0E0A3C0843009F49BC0823083
:102DE00009F492C0211531054105510509F48FC040
:102DF0000280F381E02D8FEFE238F8070CF05AC023
:102E0000C2E8DFEFCE1BDF0BCA31D1056CF57901CB
:102E10008A010C2E04C016950795F794E7940A943E
:102E2000D2F781E090E0A0E0B0E00C2E04C0880F63
:102E3000991FAA1FBB1F0A94D2F70197A109B109D4
:102E400082239323A423B52321E030E040E050E027
:102E50000097A105B10519F420E030E0A9012E2961
:102E60003F29402B512B03C020E030E0A901DA01BB
:102E7000C9018F779070A070B07080349105A10562
:102E8000B10539F427FF09C0205C3F4F4F4F5F4F1A
:102E900004C0215C3F4F4F4F5F4FE1E0F0E0203036
:102EA00080E0380780E0480780E4580728F5E0E034
:102EB000F0E022C0E038F1056CF5E158FF4FDA018F
:102EC000C9018F779070A070B07080349105A10512
:102ED000B10539F427FF09C0205C3F4F4F4F5F4FCA
:102EE00004C0215C3F4F4F4F5F4F57FF05C05695C1
:102EF000479537952795319687E0569547953795AD
:102F000027958A95D1F70BC0E0E0F0E005C0E0E03E
:102F1000F0E005C0EFEFF0E020E030E0A9018E2FF7
:102F2000879588278795942F9F776795662767955C
:102F3000E695E22EA92FA82BFE2FF62B622F732FDA
:102F40008A2F9F2FCDB7DEB7E6E00C94B818DC01CE
:102F5000FB012C9111963C91119712968C9112972E
:102F6000482F4F7750E0982F991F9927991F139654
:102F70006C911397862F880F892B90E0661F662728
:102F8000661F6183009739F521153105410551050B
:102F900011F482E029C082E89FEF9383828367E087
:102FA000220F331F441F551F6A95D1F783E080839A
:102FB00009C0220F331F441F551F8281938101973F
:102FC00093838283203080E0380780E0480780E4E4
:102FD000580778F320C08F3F910579F4211531050A
:102FE0004105510519F484E08083089544FF03C02E
:102FF00081E0808310C010820EC08F579040938371
:10300000828383E0808387E0220F331F441F551F94
:103010008A95D1F750642483358346835783089576
:10302000FC01DB019081923008F449C08C91823020
:1030300008F445C0943051F461818430B1F51196A3
:103040002C91119730E0261B310941C0843021F0CA
:10305000923041F48230B1F111968C91119788230E
:10306000A1F12DC06181823001F111968C911197EF
:103070006817D9F42281338112968D919C91139710
:103080008217930794F028173907BCF02481358103
:103090004681578114968D919D910D90BC91A02DE4
:1030A00082179307A407B50718F4662341F00DC0F3
:1030B000281739074A075B0728F4662331F021E017
:1030C00030E005C020E030E002C02FEF3FEFC90143
:1030D0000895AA1BBB1B51E107C0AA1FBB1FA6175F
:1030E000B70710F0A61BB70B881F991F5A95A9F7B1
:1030F00080959095BC01CD01089597FB092E072678
:103100000AD077FD04D0E5DF06D000201AF47095D0
:1031100061957F4F0895F6F7909581959F4F08959B
:103120002F923F924F925F926F927F928F929F92D7
:10313000AF92BF92CF92DF92EF92FF920F931F93C5
:10314000CF93DF93CDB7DEB7CA1BDB0B0FB6F89476
:10315000DEBF0FBECDBF09942A88398848885F84B6
:103160006E847D848C849B84AA84B984C884DF8027
:10317000EE80FD800C811B81AA81B981CE0FD11D0B
:103180000FB6F894DEBF0FBECDBFED010895FB0171
:103190009F01E8944230C4F04532B4F44A3029F437
:1031A00097FB1EF4909581959F4F642F77270E947F
:1031B0006918805D8A330CF0895D8193CB0100979B
:1031C000A1F716F45DE251931082C9010C94E8183E
:1031D000DC01FC01672F71917723E1F7329704C07E
:1031E0007C916D9370836291AE17BF07C8F3089509
:0431F000F894FFCF81
:1031F400E100640054656D703A20202020202020D6
:0C3204002020202000000000000000003E
:00000001FF
