:1000000032C05CC04BC04AC049C048C0ABC0B5C0DC
:10001000BFC044C043C042C041C040C03FC03EC05A
:100020003DC03CC03BC0001F000000001F00001F7F
:10003000101010101F00001F181818181F00001FA4
:100040001C1C1C1C1F00001F1E1E1E1E1F00001F4C
:100050001F1F1F1F1F0003070F1F0F070300181C80
:100060001E1F1E1C180011241FBECFE5D4E0DEBFEA
:10007000CDBF10E0A0E6B0E0E6E4F5E002C00590F8
:100080000D92A436B107D9F710E0A4E6B0E001C0A4
:100090001D92AC36B107E1F787D053C2B1CFF894C7
:1000A00088B7886188BF89B78C6189BF85B783604D
:1000B00085BF80E48BBFBD9A789408951F920F92FC
:1000C0000FB60F9211242F933F934F935F938F930B
:1000D0009F93F8948EB583608EBDC598209164007F
:1000E0003091650030936700209366008CB59DB514
:1000F00090936500809364001DBC1CBC821793071D
:1001000058F0880F991F821B930B84569040909350
:100110006900809368000BC0AC0144565040281B16
:10012000390B421B530B5093690040936800809138
:100130006800909169009C01245E304030936B0010
:1001400020936A003BBD2ABD99BD88BD78949F91DC
:100150008F915F914F913F912F910F900FBE0F9014
:100160001F9018951F920F920FB60F921124C59AE7
:100170000F900FBE0F901F9018951F920F920FB601
:100180000F921124C5980F900FBE0F901F901895D5
:100190001F920F920FB60F921124C5981EBC0F909C
:1001A0000FBE0F901F9018957ADFB89AC098FECFB7
:1001B000982F907F92BB909A939AE9EFF0E0319755
:1001C000F1F700C0000093989098E9EFF0E03197C4
:1001D000F1F700C0000090E024E0880F991F2A95F5
:1001E000E1F782BB909A939A89EF90E00197F1F73B
:1001F00000C0000093989098E9EFF0E03197F1F794
:1002000000C000000895982F907F92BB939AE9EF69
:10021000F0E03197F1F700C000009398E9EFF0E0CB
:100220003197F1F700C0000090E034E0880F991F8B
:100230003A95E1F782BB939A89EF90E00197F1F745
:1002400000C000009398E9EFF0E03197F1F700C0AB
:100250000000089581E0D7DF089582E0D4DF08959B
:10026000EF92FF921F93DF93CF930F92CDB7DEB73C
:10027000009779F0182F482F592F7A0106C0F701FF
:1002800081917F01698394DF69818E2D811B86179F
:10029000B0F30F90CF91DF911F91FF90EF900895F1
:1002A000623031F0633031F0613029F4805C03C09A
:1002B0008C5E01C08C5A8068A6DF08951F93CF938F
:1002C000DF93EC01862F642FEBDF10E002C070DFBC
:1002D0001F5FFE01E10FF11D84918823C1F7DF91BB
:1002E000CF911F910895CF92DF92FF920F931F93AA
:1002F000DF93CF930F92CDB7DEB76C01660F660F19
:10030000660F606400E010E0F601E00FF11FF4906A
:10031000862F800F698377DF8F2D4ADF0F5F1F4F96
:1003200069810830110581F70F90CF91DF911F91FE
:100330000F91FF90DF90CF900895CF93DF9385EAE0
:100340009EE00197F1F700C0000012BA12BA81B323
:10035000806F81BB81B38B6081BB80E382BB939A4A
:10036000E9EFF0E03197F1F700C000009398E9EF72
:10037000F0E03197F1F700C0000082BB939A89EF5B
:1003800090E00197F1F700C000009398E9EFF0E0EA
:100390003197F1F700C0000080E282BB939A89EFA9
:1003A00090E00197F1F700C000009398E9EFF0E0CA
:1003B0003197F1F700C0000088E225DF8CE023DFF1
:1003C000C0E0D0E0CE0143E0880F991F4A95E1F7E5
:1003D0008A5D9F4F6C2F87DF2196C830D10591F73A
:1003E000DF91CF9108950F931F93082F10E003C062
:1003F0008EE109DF1F5F1017D8F31F910F91089549
:100400000F931F93082F10E003C088E1FCDE1F5FED
:100410001017D8F31F910F9108958EE0F4DE089520
:100420008FE0F1DE08958CE0EEDE089588E0EBDEEB
:1004300008958CE0E8DE08950F931F93082F10E0D5
:1004400003C080E1E0DE1F5F1017D8F31F910F910A
:1004500008950F931F93082F10E003C084E1D3DEAB
:100460001F5F1017D8F31F910F910895CF92DF925D
:10047000EF92FF920F931F93DF93CF930F92CDB71D
:10048000DEB7E6E08E9FF0011124242F30E0E29FDA
:10049000C001E39F900DF29F900D112470E03ED0BB
:1004A0006B01CB0166E070E025D0E82E00E010E0A3
:1004B000FF2414C098012B5F3F4FC216D30628F4C7
:1004C000C016D10620F480E003C085E001C08E2D67
:1004D00049836EDEF3940A5F1F4F4981F41650F38F
:1004E0000F90CF91DF911F910F91FF90EF90DF90D0
:1004F000CF900895AA1BBB1B51E107C0AA1FBB1FC9
:10050000A617B70710F0A61BB70B881F991F5A959F
:10051000A9F780959095BC01CD01089597FB092E10
:1005200007260AD077FD04D0E5DF06D000201AF4B4
:10053000709561957F4F0895F6F7909581959F4F3F
:060540000895F894FFCFBE
:04054600E400640069
:00000001FF
